:100000000C94AF040C94730B0C94CC040C94CC049F
:100010000C94CC040C94CC040C94CC040C94CC0420
:100020000C94CC040C94CC040C94CC040C94CC0410
:100030000C94CC040C94CC040C94CC040C94CC0400
:100040000C94CC040C94CC040C94CC040C94CC04F0
:100050000C94CC04110AB707110A110AB707B707A5
:10006000B707110A110A110AB707110A110AB707CF
:10007000B707B707B707110AB707B707110A290D5E
:10008000BC0C290D290DBC0CBC0CBC0C290D290D78
:10009000290DBC0C290D290DBC0CBC0CBC0CBC0CD6
:1000A000290DBC0CBC0C290D122DF02D24F0243A86
:1000B000F03AF01229F0291246F04621F02145F0DD
:1000C00045F01229F02972F07270F07070F0707DB6
:1000D000F07D29F02932F03235F03529F029123A35
:1000E000F03AF01249F0491232F032F0122DF02DB0
:1000F00024F02431F0312CF02C29F0291CF01C4282
:10010000F0421CF01C5AF05A122DF02D24F0243A23
:10011000F03AF01229F029122CF02CF0123CF03CAD
:100120002DF02D1BF01B43F0434EF04E29F02933E8
:10013000F0331CF01C2DF02D3AF03A4BF04B24F02C
:10014000241BF01B1BF01B4BF04B43F04344F044CB
:1001500031F03149F04921F02144F0443AF03A5A63
:10016000F05A122DF02D24F0243AF03AF01229F032
:1001700029124BF04BF01243F04321F02124F024DC
:1001800031F0311BF01B24F02423F02329F0292B1C
:10019000F02B44F0442DF02D29F0294DF04D24F0A2
:1001A000242DF02D1BF01B44F04431F0311CF01CC9
:1001B0004BF04B5AF05A122DF02D24F0243AF03A1D
:1001C000F01229F0293CF03C1BF01B24F02429F00C
:1001D0002944F04431F0314BF04B35F03549F049CA
:1001E0005AF05A122DF02D24F0243AF03AF0122948
:1001F000F029122CF02CF01233F03343F0431BF0B3
:100200001B29F0291BF01B44F0442BF02B2CF02C65
:100210001DF01D1CF01C2DF02D24F02429F0293A8E
:10022000F03A1CF01C35F03529F02931F03144F05A
:10023000442CF02C5AF05A122DF02D24F0243AF0D0
:100240003AF01229F02932F03224F02429F0292D35
:10025000F02D24F0244EF04E23F02343F0431BF006
:100260001B2CF02C2DF02D43F04332F0323CF03CAF
:100270002CF02C24F02423F02329F02944F0442DE1
:10028000F02D5AF05A122DF02D24F0243AF03AF0C5
:100290001229F0291BF01B44F0444BF04B23F023B0
:1002A00029F0291DF01D43F0432CF02C33F033448A
:1002B000F0443CF03C2CF02C29F0291DF01D2DF0D1
:1002C0002D43F0432CF02C2CF02C24F02431F03171
:1002D0005AF05A122DF02D24F0243AF03AF0122957
:1002E000F0294DF04D24F0242DF02D3AF03A43F052
:1002F000431BF01B1BF01B43F04344F04431F0312F
:1003000029F0292BF02B2DF02D44F0443AF03A2916
:10031000F0292CF02C33F03324F0245AF05A122D0B
:10032000F02D24F0243AF03AF01229F0291CF01CA8
:100330003CF03C2CF02C33F03344F0442DF02D49AC
:10034000F04929F02929F029122AF02AF01269F03F
:100350006949F04973F0731CF01C5AF05A00FFFF12
:10036000FFFFFFFFFFFFFFFFFFFFFFFFFFFFFFFF9D
:10037000FFFFFFFFFFFFFFFFFFFFFFFFFFFFFFFF8D
:10038000FFFFFFFFFFFFFFFFFFFFFFFFFFFFFFFF7D
:10039000FFFFFFFFFFFFFFFFFFFFFFFFFFFF06075E
:1003A00000060407FFFF06070502FFFFFFFF060721
:1003B000FFFF04070401FFFFFFFFFFFFFFFF06072A
:1003C0000606FFFFFFFFFFFFFFFFFFFFFFFFFFFF2F
:1003D000FFFFFFFFFFFFFFFFFFFF0507FFFF060710
:1003E000050306070205FFFFFFFF06070506FFFFDF
:1003F000FFFFFFFFFFFFFFFFFFFF0507FFFF0607F0
:100400000601FFFFFFFFFFFFFFFF06070103FFFFDE
:10041000FFFFFFFFFFFFFFFFFFFF060707020607C3
:100420000602FFFFFFFF06070106FFFFFFFF0607AB
:100430000501FFFFFFFFFFFFFFFF06070705060798
:100440000202FFFFFFFF0607020304070401FFFF8C
:10045000FFFFFFFFFFFFFFFFFFFF06070505060782
:100460000001FFFFFFFFFFFFFFFFFFFFFFFFFFFF99
:10047000FFFFFFFFFFFFFFFFFFFFFFFFFFFF06077D
:100480000105FFFFFFFF0002FFFFFFFFFFFFFFFF70
:10049000FFFF04070306FFFFFFFFFFFFFFFF060745
:1004A0000101FFFFFFFFFFFFFFFFFFFFFFFFFFFF58
:1004B000FFFFFFFFFFFFFFFFFFFFFFFFFFFFFFFF4C
:1004C000FFFFFFFFFFFF0207FFFFFFFFFFFFFFFF31
:1004D000FFFFFFFFFFFF06070605FFFFFFFFFFFF10
:1004E000FFFFFFFFFFFFFFFFFFFFFFFFFFFFFFFF1C
:1004F000FFFFFFFFFFFFFFFFFFFFFFFFFFFFFFFF0C
:10050000FFFF06070701FFFFFFFF040705030607BC
:100510000201FFFFFFFFFFFFFFFFFFFFFFFF0407D9
:1005200004030407040204070703FFFFFFFF040797
:10053000050504070605FFFFFFFFFFFFFFFFFFFFA5
:10054000FFFFFFFFFFFF04070401FFFFFFFF060798
:1005500005020407030604070401FFFFFFFFFFFF76
:10056000FFFF04070303FFFFFFFF04070406040760
:100570000405040704020407040306070403FFFF3D
:10058000FFFF04070302040703050407030604072B
:1005900004010407030104070603FFFFFFFFFFFF39
:1005A000FFFF0407FFFF0507FFFFFFFFFFFF060731
:1005B000FFFF0602050704020507FFFFFFFFFFFF1D
:1005C000FFFFFFFFFFFF0702050705030507050201
:1005D00005070603050704030507FFFFFFFFFFFFED
:1005E000FFFF0705050707030507050505070605BE
:1005F00005070401050704050507FFFFFFFFFFFFCF
:10060000FFFF0107FFFF07010507050105070606B4
:1006100005070601050704060507FFFFFFFFFFFFAB
:10062000FFFF000605070706050701060507050683
:1006300005070206050703060507FFFFFFFFFFFF8B
:10064000FFFFFFFFFFFF0001050701010507020192
:1006500005070301050703050507FFFFFFFFFFFF70
:10066000FFFF000505070105050702050507020351
:1006700005070302050703030507FFFFFFFFFFFF51
:10068000FFFF000305070407020501030507010238
:1006900005070202050704070201FFFFFFFFFFFF36
:1006A000FFFFFFFFFFFF04070202FFFFFFFF04073A
:1006B000050100070507FFFFFFFFFFFFFFFFFFFF2B
:1006C000FFFF0507FFFF0207FFFF04070506FFFF07
:1006D000FFFF04070502FFFFFFFFFFFFFFFFFFFF14
:1006E000FFFFFFFFFFFFFFFFFFFFFFFFFFFFFFFF1A
:1006F000FFFFFFFFFFFF04070503FFFFFFFFFFFFF3
:10070000FFFF0402FFFFFFFFFFFF0401FFFF0301E4
:10071000FFFFFFFFFFFFFFFFFFFFFFFFFFFF0302E2
:10072000FFFF0003FFFF0403FFFF0406FFFF0306B4
:10073000FFFF0305FFFF0607000306070603060782
:100740000402050700070405FFFF0507000205076F
:1007500003050303FFFF0607070604070301FFFF66
:10076000FFFF04070303FFFFFFFF0407040604075E
:100770000405040704020407040306070403FFFF3B
:10078000FFFF040703020407030504070306040729
:1007900004010407030104070705FFFFFFFFFFFF34
:1007A000FFFF0407FFFF0507FFFFFFFFFFFF06072F
:1007B000FFFF0602FFFF0402FFFFFFFFFFFFFFFF37
:1007C000FFFFFFFFFFFF0702FFFF0503FFFF05021B
:1007D000FFFF0603FFFF0403FFFFFFFFFFFFFFFF15
:1007E000FFFF0705FFFF0703FFFF0505FFFF0605E6
:1007F000FFFF0401FFFF0405FFFFFFFFFFFFFFFFF7
:10080000FFFF0107FFFF0701FFFF0501FFFF0606CE
:10081000FFFF0601FFFF0406FFFFFFFFFFFFFFFFD3
:10082000FFFF0006FFFF0706FFFF0106FFFF0506AB
:10083000FFFF0206FFFF0306FFFFFFFFFFFFFFFFB3
:10084000FFFFFFFFFFFF0001FFFF0101FFFF0201AC
:10085000FFFF0301FFFF0305FFFFFFFFFFFFFFFF98
:10086000FFFF0005FFFF0105FFFF0205FFFF020379
:10087000FFFF0302FFFF0303FFFFFFFFFFFFFFFF79
:10088000FFFF0003FFFF0002FFFF0103FFFF010264
:10089000FFFF0202FFFF05070002FFFFFFFFFFFF50
:1008A000FFFFFFFFFFFF04070203FFFFFFFF040737
:1008B00006010007FFFFFFFFFFFFFFFFFFFFFFFF36
:1008C000FFFF0507FFFF0207FFFF04070606FFFF04
:1008D000FFFF04070702FFFFFFFFFFFFFFFFFFFF10
:1008E000FFFFFFFFFFFFFFFFFFFFFFFFFFFFFFFF18
:1008F000FFFFFFFFFFFF04070503FFFFFFFFFFFFF1
:10090000FFFF0402FFFFFFFFFFFF0401FFFF0301E2
:10091000FFFFFFFFFFFFFFFFFFFFFFFFFFFF0302E0
:10092000FFFF0003FFFF0403FFFF0406FFFF0306B2
:10093000FFFF0305FFFF040703030607060306077F
:100940000402050700070405FFFF0507000205076D
:1009500003050303FFFF060707060407030111242D
:100960001FBECFE5D4E0DEBFCDBF10E0A0E6B0E013
:10097000E6E9F4E202C005900D92A437B107D9F779
:1009800020E0A4E7B0E001C01D92A43EB207E1F769
:100990000E94CE040C9449120C9400000E946B112A
:1009A0000E9446050E94CA0584EE91E19093720070
:1009B000809371001092750020917500211147C03D
:1009C00081E00E947711C3E6D0E0309175003111CB
:1009D0003EC081E00E94771140917500411137C0FF
:1009E00081E00E94771150917500511130C081E073
:1009F0000E94771160917500611129C081E00E9409
:100A0000771170917500711122C081E00E947711F9
:100A10009091750091111BC081E00E947711A09107
:100A20007500A11114C081E00E947711B09175008A
:100A3000B1110DC081E00E947711E0917500E111C4
:100A400006C081E00E947711299709F0BECFD091AE
:100A50007500DD2359F027EE31E1309372002093C9
:100A600071000E94B7060E948C06FDCF61E08FEFF7
:100A70000E947E06F0917500F111EDCF81E00E9499
:100A80007711809175008823C9F3E5CF10BC8AE007
:100A900089B91BB828E02AB936E830BD0895673017
:100AA00001F1E62F660FFF0BEC59FF4F21E030E01C
:100AB000442359F0A90102C0440F551F8A95E2F75B
:100AC000CA019081892B80830895B90102C0660F05
:100AD000771F8A95E2F7CB0180953081832380834D
:100AE0000895843031F18530A9F08630D1F68091B7
:100AF0008600442309F44AC0882309F441C0815088
:100B0000809386008823E1F170916B007F7B709366
:100B10006B000895A0918D00411120C0AF5FA0939C
:100B20008D00AA2339F1F0916B00FF7DF0936B00EB
:100B30000895E091810041110BC0EF5FE0938100C7
:100B4000EE2391F040916B004F7E40936B0008952F
:100B5000EE2351F0E150E0938100F2CFAA2351F04F
:100B6000A150A0938D00DDCF20916B0020612093D8
:100B70006B000895B0916B00B062B0936B00089564
:100B800050916B00506450936B0008958F5F809379
:100B90008600B8CF8EE990E090937B0080937A0036
:100BA00090938800809387001092E0002FEF2093AD
:100BB000DF00109299001092810010928D00109227
:100BC00086001092E3008B98939A109298008A986E
:100BD00092E095BF30E43BBF4BE0409385002ABFD5
:100BE00078940895CF93DF9380919B00882321F020
:100BF000F8941BBE8A9A92982EE930E030937B00DD
:100C000020937A0030938800209387001092E000B0
:100C1000CFEFC093DF001092E300DBE0D0938500BC
:100C200030919B00332381F081E00E947711109274
:100C300098008A9842E045BF50E45BBFD09385009E
:100C4000CABF789410929B00DF91CF910895CF9303
:100C5000DF9300D0CDB7DEB7198280919B00811160
:100C600048C0F8941BBE8A9A92981982298125302F
:100C700080F41A823A813A3530F44A814F5F4A83D0
:100C80005A815A35D0F369816F5F698379817530F4
:100C900080F393988B9A19829981953080F41A8207
:100CA000AA81AA3530F4BA81BF5FBA83EA81EA35F6
:100CB000D0F3F981FF5FF9838981853080F321E0EA
:100CC00020939B0030919D0030936E0040918200F4
:100CD00040939C005FED58BB109298008A9862E0A8
:100CE00065BF70E47BBF9BE090938500AFEFAABF28
:100CF00078940F900F90DF91CF91089580939D008D
:100D00006093820010929B008AE08093DF000E9433
:100D1000270681E090E0089508C0E0917100F0910D
:100D20007200099580E00E9477119091E00099236C
:100D3000A1F3E0918700F0918800219130E080E0FC
:100D4000EE3DF80758F04EE950E05093880040938C
:100D5000870091509093E000C9010895F0938800B6
:100D6000E093870091509093E000C90108958FEFC0
:100D70008BBB20918100222339F0109281003091A9
:100D80006B003F7E30936B0040918D00442339F01F
:100D900010928D0050916B005F7D50936B006091BD
:100DA0008600662339F01092860070916B007F7B7D
:100DB00070936B0090916D00911138C0A2E0E3E058
:100DC00091E081E050E040E0B0919A00B11102C0A2
:100DD000EA2FCA01F0916C00FF2311F08F5F9E2F64
:100DE00080FF20C01092DE009093780025E02093D1
:100DF00099003DEE30939D0041E0409382001092B7
:100E00009B005AE05093DF000E94270660919900F2
:100E1000662339F081E00E94771170919900711179
:100E2000F9CF089581E08093DE00DECFA6E0E7E011
:100E300095E082E054E041E0C7CFFF920F931F930B
:100E4000CF93DF93C82F8535D1F11091E3001111B5
:100E50002BC08E3709F4C3C108F433C18E3E49F16B
:100E600008F461C08C3F09F496C108F04FC1803F7F
:100E700009F4A2C18A3F79F5F0909900FF2079F03A
:100E80001091DE009091780090939D001093820065
:100E900010929B002AE02093DF000E942706109208
:100EA00099001092DE0005C0803F19F01150109398
:100EB000E300DF91CF911F910F91FF900895009172
:100EC0008600011104C0F0908100F110F2CF109162
:100ED000E3001111EBCF90916C00911148C020916B
:100EE0007C00222309F4A1C260919A00662309F4D0
:100EF00046C0C23709F4EDC208F4D6C2C43709F4BB
:100F0000F1C2C537E1F510927C00A4E2FA2ED0E0E0
:100F100004E210E0C4E2E0917100F09172000995E2
:100F20004F2D5D2F36C08A3A09F43CC108F423C125
:100F3000803E09F46EC1813E71F6F2E0F093E30069
:100F4000B8CF40917C00442309F43DC26091790000
:100F5000662341F070918600772321F0A0918100F3
:100F6000A11124C380916C00882309F4BDCF409166
:100F70009A00442321F050917C005111BACFE091A6
:100F80007100F09172000995C7FD85C00C2F10E02B
:100F9000A80170917C007111B0C0A0917F00A111D7
:100FA000EFC0B0918300B111EBC0C801880F991F49
:100FB000880F991F825A984F20917900211108C0FB
:100FC00000916000109161000417150709F44AC0F0
:100FD0005093610040936000FC0114911F3F09F49D
:100FE000EDC13196D491FC01329604910F3F09F482
:100FF000E2C13196F490211114C0909180009923A0
:1010000071F0D73061F037E0F31649F0923009F40F
:1010100095C2933009F479C2913009F49FC21092BD
:1010200080001F3F41F0DF3F31F0409179006D2F8C
:10103000812F0E944F050F3F09F497C1409179001D
:101040005FEFF51631F06F2D802F0E944F05409114
:1010500079004111E2C0D73009F4F8C1B7E0FB16BE
:1010600009F40FC280918B0090918C00892B09F4B8
:1010700087C1E091E100F091E200EF2B39F060913F
:101080007900662319F0CA3509F41AC2E09171009B
:10109000F09172000995C0917900CC2341F0109233
:1010A0008300AFEFB0E0B0936100A09360001092B6
:1010B0007C0010927900DF91CF911F910F91FF90EA
:1010C0000895823109F47FC008F41DC1813709F405
:1010D00038CFC0F5883509F073C080917C0081114C
:1010E00009C0F0907900F1106BC1009199000023C4
:1010F00009F401C210927C00DCCEC801880F991F50
:10110000880F991F825A9C4F506E56CF8E3F09F020
:10111000B0C140916E004E3E09F4CBCE70919C0060
:1011200050916E0050939D007093820010929B002E
:10113000AAE0A093DF00DF91CF911F910F91FF9064
:101140000C942706873709F098C100917C000111A3
:10115000D1CF90917900911133C110919900111163
:10116000C9CF31E020916C00211130E030936C0048
:101170000E94B706BFCF833809F0ADCECFE7ABCE24
:10118000C801880F991F880F991F825A9A4FF1E062
:10119000F093830011CF109275006FEF60939D0064
:1011A00071E0C2CF01E000937500109281001092AF
:1011B0008D00109286007DCE31E03093790079CE9B
:1011C000893509F088CEB0917C00B11170CFC09103
:1011D0007900CC2309F436C110927F0068CFE091EA
:1011E0007C00E111BFCEB0917900B11162CFC09106
:1011F0009900C1115ECEF1E0D0919A00D111F0E0DA
:10120000F0939A00DF91CF911F910F91FF900C9472
:10121000B70681E080937C004CCE80918B0090914A
:101220008C00892B09F025CFCA3509F02FCF80918A
:101230007D0090917E00FC01E257FF4F6081653791
:1012400009F024CF9C012F5F3F4F2A3031050CF06D
:10125000BCC1E901C257DF4F7881753709F016CF5D
:101260008C010E5F1F4F0A30110509F0FAC1D091B1
:101270008E00D23709F00ACF90918F00923709F093
:1012800005CF82E090E0FC01E257FF4F50815B36D2
:1012900009F0FCCE01968A30910509F0FAC17091EF
:1012A0008E00743709F0F2CE00918F000B3609F0F2
:1012B000EDCE82E090E0EC01C257DF4FD881D43709
:1012C00009F0E4CE01968A30910509F0FAC1A091A7
:1012D0008E00A23309F0DACE40918F004C3109F034
:1012E000D5CE0EE810E07AE0F80111927A95E9F790
:1012F000A8EAB0E0B0938C00A0938B001092E200BB
:101300001092E100C3CE813039F008F4D2CD87309D
:1013100019F0893009F0DFCD20917900222309F4FA
:101320005CC0B0918400BB2309F4D5CDE09171007D
:10133000F09172000995C73009F48FC108F43BC1E0
:10134000C93009F486C1C83709F0A9CEC0E4D1B3C9
:10135000FC2FF095DF23D1BB82B3C82BC2BBF0902A
:101360008400FF21F09384009ACEA0918B00B0916D
:101370008C00AB2B09F07DCE40917900411154CF08
:10138000CA3509F483CE00917D0010917E0098014A
:101390002F5F3F4F30937E0020937D00F801E2578E
:1013A000FF4FC0832A3031050CF470CE10927E00BE
:1013B00010927D006BCEFF24FA941DCEDFEF13CE8A
:1013C0001092790097CE50916C00552351F1E09125
:1013D0007100F09172000995D9CD309181003323CD
:1013E00009F479CDE0917100F09172000995C73050
:1013F00009F431C108F4E4C0C93009F430C1C83778
:1014000009F078CE40E452B3642F6095562352BB66
:1014100071B3742B71BBA09184004A2B409384005C
:1014200069CE31E030937C005FCD8C2F90E0FC01E1
:10143000E956F109E531F10508F099CDE65DFF4F78
:101440000C944312D1E0D0937F0031CE153009F4D3
:101450009DC0163009F496C0143009F48FC0109165
:101460008000112309F4FECD00936300F092620026
:10147000F9CD8F3F09F41DCD2ECD883709F44CCF1F
:101480002ACD053009F48EC0063009F487C0043037
:1014900009F480C0F0908000FF2009F4E3CD1093A0
:1014A0006300D0936200DECDCB3609F068CD109298
:1014B0007C00FBE1FF2ED0E00BE110E0CBE12BCD77
:1014C00010928C0010928B001092E2001092E100BA
:1014D000DDCD10927C00E2E2FE2ED0E002E210E0D0
:1014E000C2E219CD10927C0073E2F72ED0E003E245
:1014F00010E0C3E210CD11E090916D00911110E069
:1015000010936D000E94B706F5CD153009F487CD14
:10151000053009F484CD41E067E085E00E944F0585
:10152000809163008F3F09F47ACD609162006F3F34
:1015300009F475CD41E00E944F0571CD163009F4D4
:101540006ECD063009F46BCD41E067E086E00E9485
:101550004F05809163008F3F41F761CD143009F44E
:101560005ECD043009F45BCD41E067E084E00E9489
:101570004F05809163008F3FC1F651CDD1E0D093EC
:10158000800072CF42E0409380006ECF53E05093D2
:1015900080006ACFF1E0F093800081CF32E0309399
:1015A00080007DCF93E09093800079CFF894E0E0C5
:1015B000F0E0099590CCC13009F071CDC0E1C7CE03
:1015C000C13009F097CD40E11ECF30918E00353704
:1015D00009F05CCDA0918F00A23709F057CD82E0D1
:1015E00090E0EC01C257DF4F4881423709F04ECD01
:1015F00001968A30910509F046CEB0918E00BB3637
:1016000009F044CDF0918F00F43709F03FCD82E02E
:1016100090E0FC01E257FF4F10811B3609F036CDF8
:1016200001968A30910509F046CE50918E005437CC
:1016300009F02CCD60918F00623309F027CD82E054
:1016400090E0EC01C257DF4F28812C3109F449CEDC
:101650001DCDC0E27CCE40E8D6CEC0E878CE40E2D8
:10166000D2CEF801E257FF4FB081B23709F00ECD6C
:1016700003968A30910509F0B4CFF0918E00F237CD
:1016800009F004CD10918F001B3609F0FFCC82E0E9
:1016900090E0EC01C257DF4F6881643709F0F6CC67
:1016A00001968A30910509F0B4CF80918E008B3677
:1016B00009F0ECCC20918F00243709F0E7CC82E0D0
:1016C00090E0FC01E257FF4F3081323309F0DECC6D
:1016D00001968A30910509F0B4CF90918E009C312B
:1016E00009F4FFCDD3CC1F920F920FB60F921124A5
:1016F0002F933F934F935F936F937F938F939F931A
:10170000AF93BF93EF93FF938FEF9FEF90938A0078
:101710008093890020919B00222319F12091980049
:10172000211156C033E035BF41E040939800A091AD
:10173000DF00A7FD51C06091DF0063300CF45DC095
:1017400080919D0080FF6EC08B98939A20919D00A0
:10175000269520939D003091DF0031503093DF00BB
:101760003BC030919800311119C0B09185009DEFB8
:101770009B0F983050F4E0917400E695E09374006C
:10178000839B03C0E068E0937400B150B093850080
:10179000F3E0F5BF81E0809398001EC04091850082
:1017A000411116C0A0918B00B0918C00AB2B09F4B5
:1017B0004DC061E070E07093E2006093E1005BE097
:1017C000509385007091DF00171614F40E942706CD
:1017D00042E045BF10929800FF91EF91BF91AF9109
:1017E0009F918F917F916F915F914F913F912F9139
:1017F0000F900FBE0F901F9018955091DF00523040
:10180000B9F07091DF00713081F0B091DF00B1115B
:10181000A2CF839915C010929B00EBE0E093850066
:10182000C59A99CF93988B9A91CF8B98939A93CF8F
:10183000C198F0918200F111F8CF93988B9A8BCFD9
:101840009091DF009F5F9093DF0085CF80917400BF
:101850000E941D07B4CF4F925F926F927F928F923A
:101860009F92AF92BF92CF92DF92EF92FF920F932F
:101870001F93CF93DF93E0918B00F0918C000FEFDB
:1018800010E03EE8C32E30E0D32E4AE0442E58EA62
:10189000E52E50E0F52E63E0862E72E0972ED1E023
:1018A000309769F0CF01019690938C0080938B0064
:1018B000C491C11115C010928C0010928B00DF9161
:1018C000CF911F910F91FF90EF90DF90CF90BF903D
:1018D000AF909F908F907F906F905F904F90089502
:1018E000C535B9F14091E300442339F0C03F09F414
:1018F00055C041504093E300E2CFCE3709F422C2F5
:1019000008F45DC0CE3ED9F208F44AC0CC3F09F4D9
:10191000FAC108F076C0C03F09F43EC0CA3F09F0E2
:10192000EAC260919900662379F07091DE00A0917F
:101930007800A0939D007093820010929B00BAE003
:10194000B093DF000E942706109299001092DE00EB
:10195000B6CFA0908600A11004C020918100211173
:10196000AECF4091E3004111C4CFB0906C00BB20DA
:1019700009F44BC175E5772E60919A00662321F03A
:1019800070917C0071114DC1E0917100F091720075
:10199000099577FC16C16FC0D0937900FC0180CF08
:1019A000CA3A09F4F4C108F457C0C03E09F4F9C1B9
:1019B000C13E09F0A0C2D2E0D093E30080CFC83589
:1019C00009F415C108F460C1C13751F108F4EEC241
:1019D000C73709F00CC340907C00411013C18090C0
:1019E000790081100DC19090990091100BC101E018
:1019F000C0906C00C11000E000936C000E94B7061C
:101A000001C1CE3F09F0D6C200916E000E3E09F42E
:101A100056CF30919C0040906E0040929D0079C15D
:101A200080917C00882309F471C26090790066205F
:101A300041F070908600772021F0A0908100A110E5
:101A400054C390916C00911166C2A1E77A2E811166
:101A5000E3C0D0937C00E0C0C33809F04CC22091B1
:101A60006C00222309F45AC2BFE77B2EE09171007B
:101A7000F09172000995A72CB12C950140917C0042
:101A8000442309F4EEC0D501AA0FBB1FAA0FBB1F48
:101A9000A25ABC4F306E80917900811108C0A0908D
:101AA0006000B0906100A216B30609F470C03093D4
:101AB000610020936000FD0154903FEF531609F43C
:101AC0000BC2FD0131966490FD013296B4902FEF68
:101AD000B21609F4FEC13196A490811133C0709101
:101AE0008000772369F1B7E06B1651F1AB1641F135
:101AF000723009F4D0C2733009F4B5C2713001F507
:101B0000F4E05F16E9F0BF16D9F0909181009923B7
:101B100009F448C3915090938100992309F442C37A
:101B200050916B005F7E50936B00809163008F3FFC
:101B300039F0609162006F3F19F041E00E944F055B
:101B400010928000FFEF5F1649F09FEF691631F0A9
:101B500040917900662D852D0E944F054FEFB416F8
:101B600009F490C1409179005FEFA51631F06A2D1C
:101B70008B2D0E944F0540917900411116C197E0CD
:101B8000691609F41EC277E0A71609F4E4C1E091D2
:101B90008B00F0918C00EF2B09F47FC1A091E10044
:101BA000B091E200AB2B41F0A0907900AA2021F087
:101BB0003AE5731609F4E5C1E0917100F091720005
:101BC000099550907900552031F0109283001093C0
:101BD00061000093600010927C0010927900C03F79
:101BE00009F06DCEE0918B00F0918C0059CED09031
:101BF0007C00D11007C0E0907900EE2009F49DC16F
:101C00001092790010927C005ACE50917C00F5E53C
:101C10007F2E552309F4B0CEA0919A00AA2309F48F
:101C2000B3CEB2E77B1609F4F4C1B71508F0CFC202
:101C300084E7781609F4E2C195E77912A5CE1092EF
:101C40007C0044E2542E612C54E2A52EB12C64E2B7
:101C5000762EE0917100F09172000995252D362DB8
:101C60000DCF50917F00511105C060918300662314
:101C700009F45BC1D501AA0FBB1FAA0FBB1FA25A53
:101C8000BA4FD093830007CFC730A9F088F0C9308E
:101C900091F0C23109F02FC150907C0051109BCFC0
:101CA00060907900662009F489C110927F0093CF7B
:101CB000C13009F020C170907900772009F417C174
:101CC00050918400552309F416C1E0917100F09100
:101CD00072000995C73009F459C208F451C2C930DD
:101CE00009F44BC2C83709F070CF6FEB70E4A1B3B1
:101CF000A623A1BBB2B37B2B72BBF09184006F23F0
:101D00006093840062CF109275009FEF90939D00C6
:101D100031E03093820010929B001AE01093DF00B4
:101D2000DF91CF911F910F91FF90EF90DF90CF90B7
:101D3000BF90AF909F908F907F906F905F904F90EB
:101D40000C94270650907C005110C9C080907900F7
:101D5000811051C1909099009110B1CDC1E0C09017
:101D60009A00C110C0E0C0939A00DF91CF911F91FB
:101D70000F91FF90EF90DF90CF90BF90AF909F902A
:101D80008F907F906F905F904F900C94B70651E0CA
:101D9000509375001092810010928D001092860071
:101DA0008ECD41E040937C008ACD80918B00909154
:101DB0008C00892B09F0F2CE6AE57612FDCE809177
:101DC0007D0090917E00FC01E257FF4F3081353756
:101DD00009F0F2CE9C012F5F3F4F2A3031050CF005
:101DE0008FC1F901E257FF4F7081753709F0E4CEDA
:101DF000AC014E5F5F4F4A30510509F0F6C170915A
:101E00008E00723709F0D8CE40918F00423709F02A
:101E1000D3CEB0919000BB3609F0CECE83E090E0F7
:101E2000FC01E257FF4F6081643709F0C5CE01968F
:101E30008A30910509F0F6C140918E004B3609F0C9
:101E4000BBCEB0918F00B43709F0B6CEA091900010
:101E5000A23309F0B1CE83E090E0FC01E257FF4FDE
:101E600020812C3109F0A8CED601742C1D927A94D1
:101E7000E9F7F0928C00E0928B001092E200109251
:101E8000E1009ACEA0918B00B0918C00AB2B09F0B1
:101E900085CE5090790051108FCF2AE5721609F443
:101EA0008BCE80917D0090917E00AC014F5F5F4FA3
:101EB00050937E0040937D00FC01E257FF4F7082FB
:101EC0004A3051050CF478CE10927E0010927D00BD
:101ED00073CEAA24AA9401CE66246A94F5CD6090AC
:101EE0006C002EE7722E662009F496CEBFCDA0902E
:101EF0008100A11099C0F0916C00F111EAC18091AC
:101F00007C00882309F4D7C17C2E86CE50906C00CB
:101F1000552009F43FC0E1E77E2EA8CDB0907C00AB
:101F20009FE7792EB11078CE2FCDD501AA0FBB1F18
:101F3000AA0FBB1FA25AB84FAECDF0909900F11076
:101F400061CEC1E010916D001111C0E0C0936D0031
:101F50000E94B70657CE85E0B81609F4C3C046E024
:101F6000B41609F4BCC0B4E0BB1609F4B5C0B09017
:101F70008000BB2009F40BCE509263006092620097
:101F800006CE10928C0010928B001092E2001092FC
:101F9000E10012CED0937C0081E7782EE0917100B1
:101FA000F0917200099577FC0CCE65CDC93509F426
:101FB00073CEA1CFCF3F09F482CC9DCFD0937F00C9
:101FC0000ACEF5E05F1609F484C056E0551609F410
:101FD0007DC064E0561609F476C0609080006620EB
:101FE00009F4D5CDB0926300A0926200D0CDC8377D
:101FF00009F461CE80CF1092790061CC10927C0000
:1020000073E2572E612CE3E2AE2EB12CF3E27F2E69
:1020100020CE10927C00A2E25A2E612CB2E2AB2EAE
:10202000B12C82E2782E15CEE0917100F091720011
:102030000995C73009F4C8C008F4C0C0C93009F414
:10204000A8C0C83769F49FEB30E422B3922392BB57
:10205000B1B2B32AB1BA40918400342B30938400DA
:1020600010927C00BCCD65E0561609F469CDB61619
:1020700009F466CDA0918D00AA2309F48DC0A1506A
:10208000A0938D00AA2309F487C030916B003F7D97
:1020900030936B004ACDE6E05E1609F451CDBE16D2
:1020A00009F44ECD20918600222309F481C02150ED
:1020B00020938600222309F47BC0B0916B00BF7B84
:1020C000B0936B0032CDD09380008CCF9092800083
:1020D00089CF8092800086CFD09380004DCF9092A0
:1020E00080004ACF8092800047CFF894E0E0F0E093
:1020F000099530916C0031110ECF80917C00A5CCF8
:10210000A0918E00A53709F057CDE0918F00E237FE
:1021100009F052CDF0919000F23709F04DCD83E0F7
:1021200090E0FC01E257FF4F50815B3609F044CD4F
:1021300001968A30910509F073CEF0918E00F43744
:1021400009F03ACD50918F005B3609F035CD6091A2
:102150009000643709F030CD83E090E0FC01E25755
:10216000FF4F3081323309F027CD01968A30910537
:1021700009F073CE80E090E070CE6FED70E2B7CDE5
:10218000C13009F022CD6FEE70E1B1CD6FE770E89C
:10219000AECD9FED30E259CF80916B00806280938D
:1021A0006B00C3CC40916B00406140936B00BDCC91
:1021B00070916B00706470936B00B7CCC13009F004
:1021C0004FCF9FEE30E141CF9FE730E83ECFFBE6B7
:1021D0007F12DACB10927C009BE1592E612C2BE10F
:1021E000A22EB12C3BE1732E34CDFA01E257FF4F02
:1021F000B081B23709F0E0CCDC011396AA30B1050A
:1022000049F560918E00623709F0D6CC30918F008D
:102210003B3609F0D1CC20919000243709F0CCCC8A
:1022200083E090E0FC01E257FF4F30813B3609F03C
:10223000C3CC01968A30910551F580918E00843788
:1022400009F0BACC70918F00723309F0B5CC82E0FE
:1022500090E003CEFD01E257FF4FF081F23709F025
:10226000ABCC04968A30910509F05BCF90918E003B
:102270009B3609F0A1CC50918F00543709F09CCCCB
:10228000809190008B3609F097CC83E090E0FC01C0
:10229000E257FF4F2081243709F08ECC01968A3017
:1022A000910509F05BCF90918E00923309F084CCB8
:1022B00081E090E0D2CD8C2F90E0895691097C2E60
:1022C0008531910508F058CBFC01E15CFF4F0C947F
:1022D00043127C2E51CB1ABA1BBA8FEF87BB88BB37
:1022E00014BA85BB11BA82BB81E090E008951F93B8
:1022F000CF93DF9300D01F92CDB7DEB7182F88237E
:1023000009F444C02FEF2BBB1B823B813817A0F58B
:102310001A824A814233A8F419825981503558F4FF
:10232000E0917100F0917200099569816F5F698396
:1023300079817035A8F39A819F5F9A83BA81B2330D
:1023400058F38091890090918A00892B79F0A091AF
:102350008900B0918A001197B0938A00A0938900F8
:10236000E0918900F0918A00EF2B69F0FB81FF5F1B
:10237000FB832B81211760F20F900F900F90DF915C
:10238000CF911F9108950E94F205F0CF80918900AE
:1023900090918A00892B81F3A0918900B0918A00E5
:1023A0001197B0938A00A0938900E0918900F09181
:1023B0008A00EF2B09F70E94F2050F900F900F9003
:1023C000DF91CF911F9108951ABA1BBA089583B374
:1023D0008F3F09F44CC0873F09F44CC088F08D3F13
:1023E00009F44BC08E3F09F43FC08B3F09F448C04D
:1023F00086FD37C090916D00992399F13FEE08C09A
:102400008F3D59F18F3EA1F730916A003F3F49F16E
:102410002FEF2ABB3BBB90E040916F0050917000C2
:1024200084179507B9F09093700080936F008091A6
:1024300076009091770001969093770080937600D4
:1024400060918B0070918C00672B21F08F70992721
:10245000892B09F008950C942B0C309166003F3FB6
:10246000B9F61ABA1BBAD7CF30916B00CFCF1ABAD0
:102470001BBA089530916500C9CF30916700C6CF6F
:1024800030916900C3CFEE0FFF1F0590F491E02D4E
:062490000994F894FFCF4F
:10249600FF00FFFFFFFFFFFFFFFFFFFF0101EEFF52
:0424A600FFE411003E
:00000001FF
